:100000000A128A11102D00308A000408840A82071F
:100010000034503431342034563441344C34553467
:1000200045343A3400345034323420345634413478
:100030004C34553445343A3400344C345934433418
:0C004000413453344F34463454340034FF
:100A2000A001A101A201A301A401A501A601A701A2
:100A3000A801A901AA01AB01AC01AD0183010A1211
:100A40008A11B72E02300A128A117F250A128A11E2
:100A500028300A128A117F250A128A110C300A12D4
:100A60008A117F250A128A110800F400482D7408A3
:100A700084000A128A1103200A128A110A128A11AA
:100A8000AE250A128A110130F3007308F407482DCD
:100A9000740884000A128A1103200A128A1100388D
:100AA000031D532D542D372D552D0800582D582D2D
:100AB0007008F20002300310F20DFF3E031D5B2DA3
:100AC0000310720D0538831203139F00013A0319B6
:100AD0006A2D6B2D582D6C2D1E08F200F301720843
:100AE000F300F201831603131E0872078312031327
:100AF000AC000030031801307307AD000800F200AD
:100B00007208F03983120313880008118815213008
:100B1000F1007630F000F00B8B2DF10B8B2D640083
:100B20008312031388117208F00003300310F00DD4
:100B3000FF3E031D962D0310700DF039880008113B
:100B400088152130F1007630F000F00BA52DF10B67
:100B5000A52D64008312031388110800F2007208A7
:100B6000F039831203138800081588152130F1002D
:100B70007630F000F00BBA2DF10BBA2D6400831221
:100B8000031388117208F00003300310F00DFF3ECC
:100B9000031DC52D0310700DF03988000815881548
:100BA0002130F1007630F000F00BD42DF10BD42D74
:100BB00064008312031388110800F601F31FE12D6E
:100BC000E22DEB2DF209F309F20A0319F30AF601FB
:100BD0000314F60DEB2DF11FEE2DEF2DF52DF00981
:100BE000F109F00A0319F10AF52D710870040319CF
:100BF000FA2DFB2D312EF5010314F50D0B2E0130CE
:100C00000310F00DF10DFF3E031D002E0130F40026
:100C10007408F5070B2EF11F0E2E0F2EFF2D112E2F
:100C2000112E71087302031D172E70087202031C27
:100C30001A2E1B2E222E7008F2027108031CF303D9
:100C4000F302222E01300310F10CF00CFF3E031DC5
:100C5000232E0130F502031D2E2E2F2E112E312EA4
:100C6000312E7608031D352E3B2EF209F309F20AC8
:100C70000319F30A3B2E7308F101F1077208F00122
:100C8000F007422E0800F601F11F472E482E512E84
:100C9000F009F109F00A0319F10AF6010314F60D3F
:100CA000512EF31F542E552E5F2EF209F309F20A2E
:100CB0000319F30A0130F4007408F6065F2EF701F9
:100CC000F801710870040319662E672EA52EF50130
:100CD0000314F50D772E01300310F00DF10DFF3EDA
:100CE000031D6C2E0130F4007408F507772EF11FF8
:100CF0007A2E7B2E6B2E7D2E7D2E01300310F70D6C
:100D0000F80DFF3E031D7E2E71087302031D8A2E0F
:100D100070087202031C8D2E8E2E962E7008F20221
:100D20007108031CF303F3027714962E01300310AD
:100D3000F10CF00CFF3E031D972E0130F502031D50
:100D4000A22EA32E7D2EA52EA52E7608031DA92E3C
:100D5000AF2EF709F809F70A0319F80AAF2E780839
:100D6000F101F1077708F001F007B62E0800033013
:100D7000831603138500831203138501831603135F
:100D8000880183120313880101309F00CE3083163F
:100D900003139F000A128A1122250A128A110330B6
:100DA000FD008A30FC005630FB00FB0BD52EFC0BFF
:100DB000D52EFD0BD52EDC2E80300A128A117F2510
:100DC0000A128A1115300A128A1135250A128A115F
:100DD0001A30FD005E30FC008630FB00FB0BEE2E6F
:100DE000FC0BEE2EFD0BEE2E640080300A128A11F1
:100DF0007F250A128A1101300A128A1135250A123A
:100E00008A11C0300A128A117F250A128A110B300A
:100E10000A128A1135250A128A110E2F0030F000AD
:100E20000030F1000A128A1156250A128A118A30FE
:100E30000A128A117F250A128A11831203132D08C0
:100E4000FA01FA072C08F901F9070A128A114B274F
:100E50000A128A110130F0000030F1000A128A11E2
:100E600056250A128A11CA300A128A117F250A12DF
:100E70008A11831203132D08FA01FA072C08F901CD
:100E8000F9070A128A114B270A128A110E2F0E2F08
:100E90000A128A1100287A0883120313B701B707D0
:100EA0007908B601B6070A30F0000030F1003708C3
:100EB000F301F3073608F201F2070A128A11DD2561
:100EC0000A128A11710883120313AF01AF07700869
:100ED000AE01AE070A30F0000030F1003708F30130
:100EE000F3073608F201F2070A128A1143260A12A2
:100EF0008A11710883120313B701B7077008B6018E
:100F0000B6070A30F0000030F1003708F301F307AC
:100F10003608F201F2070A128A11DD250A128A1137
:100F2000710883120313B101B1077008B001B00753
:100F30000A30F0000030F1003708F301F3073608FB
:100F4000F201F2070A128A1143260A128A11710865
:100F500083120313B701B7077008B601B6070A304A
:100F6000F0000030F1003708F301F3073608F20112
:100F7000F2070A128A11DD250A128A1171088312FA
:100F80000313B301B3077008B201B2070A30F000CF
:100F90000030F1003708F301F3073608F201F207D9
:100FA0000A128A1143260A128A1171088312031346
:100FB000B501B5077008B401B4073408303E0A1211
:100FC0008A11AE250A128A11831203133208303EA9
:100FD0000A128A11AE250A128A11831203133008ED
:100FE000303E0A128A11AE250A128A1183120313A7
:100FF0002E08303E0A128A11AE250A128A11080004
:02400E003A3F37
:00000001FF
